{
  "contractName": "SvdVesting",
  "abi": [
    {
      "constant": true,
      "inputs": [],
      "name": "totalVesting",
      "outputs": [
        {
          "name": "",
          "type": "uint256"
        }
      ],
      "payable": false,
      "stateMutability": "view",
      "type": "function"
    },
    {
      "constant": true,
      "inputs": [],
      "name": "owner",
      "outputs": [
        {
          "name": "",
          "type": "address"
        }
      ],
      "payable": false,
      "stateMutability": "view",
      "type": "function"
    },
    {
      "constant": true,
      "inputs": [
        {
          "name": "",
          "type": "address"
        }
      ],
      "name": "grants",
      "outputs": [
        {
          "name": "value",
          "type": "uint256"
        },
        {
          "name": "start",
          "type": "uint256"
        },
        {
          "name": "cliff",
          "type": "uint256"
        },
        {
          "name": "end",
          "type": "uint256"
        },
        {
          "name": "installmentLength",
          "type": "uint256"
        },
        {
          "name": "transferred",
          "type": "uint256"
        },
        {
          "name": "revocable",
          "type": "bool"
        }
      ],
      "payable": false,
      "stateMutability": "view",
      "type": "function"
    },
    {
      "constant": false,
      "inputs": [
        {
          "name": "newOwner",
          "type": "address"
        }
      ],
      "name": "transferOwnership",
      "outputs": [],
      "payable": false,
      "stateMutability": "nonpayable",
      "type": "function"
    },
    {
      "constant": true,
      "inputs": [],
      "name": "token",
      "outputs": [
        {
          "name": "",
          "type": "address"
        }
      ],
      "payable": false,
      "stateMutability": "view",
      "type": "function"
    },
    {
      "inputs": [
        {
          "name": "_token",
          "type": "address"
        }
      ],
      "payable": false,
      "stateMutability": "nonpayable",
      "type": "constructor"
    },
    {
      "anonymous": false,
      "inputs": [
        {
          "indexed": true,
          "name": "_from",
          "type": "address"
        },
        {
          "indexed": true,
          "name": "_to",
          "type": "address"
        },
        {
          "indexed": false,
          "name": "_value",
          "type": "uint256"
        }
      ],
      "name": "NewGrant",
      "type": "event"
    },
    {
      "anonymous": false,
      "inputs": [
        {
          "indexed": true,
          "name": "_to",
          "type": "address"
        },
        {
          "indexed": false,
          "name": "_value",
          "type": "uint256"
        }
      ],
      "name": "TokensUnlocked",
      "type": "event"
    },
    {
      "anonymous": false,
      "inputs": [
        {
          "indexed": true,
          "name": "_holder",
          "type": "address"
        },
        {
          "indexed": false,
          "name": "_refund",
          "type": "uint256"
        }
      ],
      "name": "GrantRevoked",
      "type": "event"
    },
    {
      "anonymous": false,
      "inputs": [
        {
          "indexed": true,
          "name": "previousOwner",
          "type": "address"
        },
        {
          "indexed": true,
          "name": "newOwner",
          "type": "address"
        }
      ],
      "name": "OwnershipTransferred",
      "type": "event"
    },
    {
      "constant": false,
      "inputs": [],
      "name": "unlockVestedTokens",
      "outputs": [],
      "payable": false,
      "stateMutability": "nonpayable",
      "type": "function"
    },
    {
      "constant": false,
      "inputs": [
        {
          "name": "_to",
          "type": "address"
        },
        {
          "name": "_value",
          "type": "uint256"
        },
        {
          "name": "_start",
          "type": "uint256"
        },
        {
          "name": "_cliff",
          "type": "uint256"
        },
        {
          "name": "_end",
          "type": "uint256"
        },
        {
          "name": "_installmentLength",
          "type": "uint256"
        },
        {
          "name": "_revocable",
          "type": "bool"
        }
      ],
      "name": "granting",
      "outputs": [],
      "payable": false,
      "stateMutability": "nonpayable",
      "type": "function"
    },
    {
      "constant": true,
      "inputs": [
        {
          "name": "_holder",
          "type": "address"
        },
        {
          "name": "_time",
          "type": "uint256"
        }
      ],
      "name": "vestedTokens",
      "outputs": [
        {
          "name": "",
          "type": "uint256"
        }
      ],
      "payable": false,
      "stateMutability": "view",
      "type": "function"
    },
    {
      "constant": false,
      "inputs": [
        {
          "name": "_holder",
          "type": "address"
        }
      ],
      "name": "revoke",
      "outputs": [],
      "payable": false,
      "stateMutability": "nonpayable",
      "type": "function"
    }
  ],
  "bytecode": "0x608060405234801561001057600080fd5b5060405160208061133c83398101806040528101908080519060200190929190505050336000806101000a81548173ffffffffffffffffffffffffffffffffffffffff021916908373ffffffffffffffffffffffffffffffffffffffff160217905550600073ffffffffffffffffffffffffffffffffffffffff168173ffffffffffffffffffffffffffffffffffffffff16141515156100af57600080fd5b80600160006101000a81548173ffffffffffffffffffffffffffffffffffffffff021916908373ffffffffffffffffffffffffffffffffffffffff1602179055505061123c806101006000396000f300608060405260043610610099576000357c0100000000000000000000000000000000000000000000000000000000900463ffffffff1680631a64adae1461009e57806374a8f103146100ff5780637c17357d1461014257806383fcf9731461016d5780638da5cb5b14610184578063b869cea3146101db578063eac404df14610260578063f2fde38b146102e1578063fc0c546a14610324575b600080fd5b3480156100aa57600080fd5b506100e9600480360381019080803573ffffffffffffffffffffffffffffffffffffffff1690602001909291908035906020019092919050505061037b565b6040518082815260200191505060405180910390f35b34801561010b57600080fd5b50610140600480360381019080803573ffffffffffffffffffffffffffffffffffffffff169060200190929190505050610453565b005b34801561014e57600080fd5b506101576107d9565b6040518082815260200191505060405180910390f35b34801561017957600080fd5b506101826107df565b005b34801561019057600080fd5b506101996109b8565b604051808273ffffffffffffffffffffffffffffffffffffffff1673ffffffffffffffffffffffffffffffffffffffff16815260200191505060405180910390f35b3480156101e757600080fd5b5061021c600480360381019080803573ffffffffffffffffffffffffffffffffffffffff1690602001909291905050506109dd565b604051808881526020018781526020018681526020018581526020018481526020018381526020018215151515815260200197505050505050505060405180910390f35b34801561026c57600080fd5b506102df600480360381019080803573ffffffffffffffffffffffffffffffffffffffff1690602001909291908035906020019092919080359060200190929190803590602001909291908035906020019092919080359060200190929190803515159060200190929190505050610a2c565b005b3480156102ed57600080fd5b50610322600480360381019080803573ffffffffffffffffffffffffffffffffffffffff169060200190929190505050610e1e565b005b34801561033057600080fd5b50610339610f73565b604051808273ffffffffffffffffffffffffffffffffffffffff1673ffffffffffffffffffffffffffffffffffffffff16815260200191505060405180910390f35b60006103856111d0565b600260008573ffffffffffffffffffffffffffffffffffffffff1673ffffffffffffffffffffffffffffffffffffffff16815260200190815260200160002060e060405190810160405290816000820154815260200160018201548152602001600282015481526020016003820154815260200160048201548152602001600582015481526020016006820160009054906101000a900460ff161515151581525050905060008160000151141561043f576000915061044c565b6104498184610f99565b91505b5092915050565b61045b6111d0565b60008060008060009054906101000a900473ffffffffffffffffffffffffffffffffffffffff1673ffffffffffffffffffffffffffffffffffffffff163373ffffffffffffffffffffffffffffffffffffffff161415156104bb57600080fd5b600260008673ffffffffffffffffffffffffffffffffffffffff1673ffffffffffffffffffffffffffffffffffffffff16815260200190815260200160002060e060405190810160405290816000820154815260200160018201548152602001600282015481526020016003820154815260200160048201548152602001600582015481526020016006820160009054906101000a900460ff16151515158152505093508360c00151151561056f57600080fd5b6105798442610f99565b92506105928460a001518461106290919063ffffffff16565b91506105ab83856000015161106290919063ffffffff16565b9050600260008673ffffffffffffffffffffffffffffffffffffffff1673ffffffffffffffffffffffffffffffffffffffff168152602001908152602001600020600080820160009055600182016000905560028201600090556003820160009055600482016000905560058201600090556006820160006101000a81549060ff021916905550506106488160035461106290919063ffffffff16565b60038190555061069b8583600160009054906101000a900473ffffffffffffffffffffffffffffffffffffffff1673ffffffffffffffffffffffffffffffffffffffff1661107b9092919063ffffffff16565b8473ffffffffffffffffffffffffffffffffffffffff167fe7b379c6c1fa169e9079c25e9143b127637eef8ec8c9d5c06ddb4ab3e1195888836040518082815260200191505060405180910390a26107363382600160009054906101000a900473ffffffffffffffffffffffffffffffffffffffff1673ffffffffffffffffffffffffffffffffffffffff1661107b9092919063ffffffff16565b3373ffffffffffffffffffffffffffffffffffffffff167fe7b379c6c1fa169e9079c25e9143b127637eef8ec8c9d5c06ddb4ab3e1195888826040518082815260200191505060405180910390a28473ffffffffffffffffffffffffffffffffffffffff167f740528a7c317c81f0923adc30df75db3f448298c78cdaf548adfcfdb3c84ff6f826040518082815260200191505060405180910390a25050505050565b60035481565b6000806000600260003373ffffffffffffffffffffffffffffffffffffffff1673ffffffffffffffffffffffffffffffffffffffff1681526020019081526020016000209250600083600001541415151561083957600080fd5b6108a68360e060405190810160405290816000820154815260200160018201548152602001600282015481526020016003820154815260200160048201548152602001600582015481526020016006820160009054906101000a900460ff16151515158152505042610f99565b915060008214156108b6576109b3565b6108cd83600501548361106290919063ffffffff16565b905060008114156108dd576109b3565b6108f481846005015461116690919063ffffffff16565b83600501819055506109118160035461106290919063ffffffff16565b6003819055506109643382600160009054906101000a900473ffffffffffffffffffffffffffffffffffffffff1673ffffffffffffffffffffffffffffffffffffffff1661107b9092919063ffffffff16565b3373ffffffffffffffffffffffffffffffffffffffff167fe7b379c6c1fa169e9079c25e9143b127637eef8ec8c9d5c06ddb4ab3e1195888826040518082815260200191505060405180910390a25b505050565b6000809054906101000a900473ffffffffffffffffffffffffffffffffffffffff1681565b60026020528060005260406000206000915090508060000154908060010154908060020154908060030154908060040154908060050154908060060160009054906101000a900460ff16905087565b6000809054906101000a900473ffffffffffffffffffffffffffffffffffffffff1673ffffffffffffffffffffffffffffffffffffffff163373ffffffffffffffffffffffffffffffffffffffff16141515610a8757600080fd5b600073ffffffffffffffffffffffffffffffffffffffff168773ffffffffffffffffffffffffffffffffffffffff1614151515610ac357600080fd5b3073ffffffffffffffffffffffffffffffffffffffff168773ffffffffffffffffffffffffffffffffffffffff1614151515610afe57600080fd5b600086111515610b0d57600080fd5b6000600260008973ffffffffffffffffffffffffffffffffffffffff1673ffffffffffffffffffffffffffffffffffffffff16815260200190815260200160002060000154141515610b5e57600080fd5b838511158015610b6e5750828411155b1515610b7957600080fd5b600082118015610b9b5750610b97858461106290919063ffffffff16565b8211155b1515610ba657600080fd5b600160009054906101000a900473ffffffffffffffffffffffffffffffffffffffff1673ffffffffffffffffffffffffffffffffffffffff166370a08231306040518263ffffffff167c0100000000000000000000000000000000000000000000000000000000028152600401808273ffffffffffffffffffffffffffffffffffffffff1673ffffffffffffffffffffffffffffffffffffffff168152602001915050602060405180830381600087803b158015610c6357600080fd5b505af1158015610c77573d6000803e3d6000fd5b505050506040513d6020811015610c8d57600080fd5b8101908080519060200190929190505050610cb38760035461116690919063ffffffff16565b11151515610cc057600080fd5b60e06040519081016040528087815260200186815260200185815260200184815260200183815260200160008152602001821515815250600260008973ffffffffffffffffffffffffffffffffffffffff1673ffffffffffffffffffffffffffffffffffffffff168152602001908152602001600020600082015181600001556020820151816001015560408201518160020155606082015181600301556080820151816004015560a0820151816005015560c08201518160060160006101000a81548160ff021916908315150217905550905050610daa8660035461116690919063ffffffff16565b6003819055508673ffffffffffffffffffffffffffffffffffffffff163373ffffffffffffffffffffffffffffffffffffffff167ffabf00c3717e5e33d6fcc433d4d70ef919a4101fb7d5c444fe349927034eaa45886040518082815260200191505060405180910390a350505050505050565b6000809054906101000a900473ffffffffffffffffffffffffffffffffffffffff1673ffffffffffffffffffffffffffffffffffffffff163373ffffffffffffffffffffffffffffffffffffffff16141515610e7957600080fd5b600073ffffffffffffffffffffffffffffffffffffffff168173ffffffffffffffffffffffffffffffffffffffff1614151515610eb557600080fd5b8073ffffffffffffffffffffffffffffffffffffffff166000809054906101000a900473ffffffffffffffffffffffffffffffffffffffff1673ffffffffffffffffffffffffffffffffffffffff167f8be0079c531659141344cd1fd0a4f28419497f9722a3daafe3b4186f6b6457e060405160405180910390a3806000806101000a81548173ffffffffffffffffffffffffffffffffffffffff021916908373ffffffffffffffffffffffffffffffffffffffff16021790555050565b600160009054906101000a900473ffffffffffffffffffffffffffffffffffffffff1681565b60008060008460400151841015610fb3576000925061105a565b846060015184101515610fcc578460000151925061105a565b610ff98560800151610feb87602001518761106290919063ffffffff16565b61118290919063ffffffff16565b91506110168560200151866060015161106290919063ffffffff16565b90506110578161104961103688608001518661119890919063ffffffff16565b886000015161119890919063ffffffff16565b61118290919063ffffffff16565b92505b505092915050565b600082821115151561107057fe5b818303905092915050565b8273ffffffffffffffffffffffffffffffffffffffff1663a9059cbb83836040518363ffffffff167c0100000000000000000000000000000000000000000000000000000000028152600401808373ffffffffffffffffffffffffffffffffffffffff1673ffffffffffffffffffffffffffffffffffffffff16815260200182815260200192505050602060405180830381600087803b15801561111e57600080fd5b505af1158015611132573d6000803e3d6000fd5b505050506040513d602081101561114857600080fd5b8101908080519060200190929190505050151561116157fe5b505050565b6000818301905082811015151561117957fe5b80905092915050565b6000818381151561118f57fe5b04905092915050565b6000808314156111ab57600090506111ca565b81830290508183828115156111bc57fe5b041415156111c657fe5b8090505b92915050565b60e06040519081016040528060008152602001600081526020016000815260200160008152602001600081526020016000815260200160001515815250905600a165627a7a72305820198f3ccf393f17484c4ef5fcdcb788f2d633958960be30ce9aa43a88a846e6280029",
  "source": "pragma solidity 0.4.23;\n\nimport \"../node_modules/openzeppelin-solidity/contracts/token/ERC20/SafeERC20.sol\";\nimport \"../node_modules/openzeppelin-solidity/contracts/math/SafeMath.sol\";\n//import \"../node_modules/openzeppelin-solidity/contracts/ownership/Ownable.sol\";\nimport \"./SvdToken.sol\";\n\n/**\n * @title Vesting trustee contract for SvdToken.\n */\ncontract SvdVesting is Ownable {\n\n    using SafeMath for uint256;\n\n    using SafeERC20 for SvdToken;\n\n    // SvdToken contract.\n    SvdToken public token;\n\n    // Vesting grant for a specific holder.\n    struct Grant {\n        uint256 value;\n        uint256 start;\n        uint256 cliff;\n        uint256 end;\n        uint256 installmentLength; // In seconds.\n        uint256 transferred;\n        bool revocable;\n    }\n\n    // Holder to grant information mapping.\n    mapping (address => Grant) public grants;\n\n    // Total tokens available for vesting.\n    uint256 public totalVesting;\n\n    event NewGrant(address indexed _from, address indexed _to, uint256 _value);\n\n    event TokensUnlocked(address indexed _to, uint256 _value);\n\n    event GrantRevoked(address indexed _holder, uint256 _refund);\n\n    /**\n     * @dev Constructor that initializes the address of the SvdToken contract.\n     * @param _token SvdToken The address of the previously deployed SvdToken contract.\n     */\n    constructor(SvdToken _token) public {\n        require(_token != address(0));\n        \n        token = _token;\n    }\n    \n    /**\n     * @dev Unlock vested tokens and transfer them to their holder.\n     */\n    function unlockVestedTokens() external {\n        Grant storage grant_ = grants[msg.sender];\n\n        // Require that the grant is not empty.\n        require(grant_.value != 0);\n        \n        // Get the total amount of vested tokens, according to grant.\n        uint256 vested = calculateVestedTokens(grant_, block.timestamp);\n        \n        if (vested == 0) {\n            return;\n        }\n        \n        // Make sure the holder doesn't transfer more than what he already has.\n        \n        uint256 transferable = vested.sub(grant_.transferred);\n        \n        if (transferable == 0) {\n            return;\n        }\n        \n        // Update transferred and total vesting amount, then transfer remaining vested funds to holder.\n        grant_.transferred = grant_.transferred.add(transferable);\n        totalVesting = totalVesting.sub(transferable);\n        \n        token.safeTransfer(msg.sender, transferable);\n\n        emit TokensUnlocked(msg.sender, transferable);\n    }\n\n    /**\n     * @dev Grant tokens to a specified address. Please note, that the trustee must have enough ungranted tokens\n     * to accomodate the new grant. Otherwise, the call with fail.\n     * @param _to address The holder address.\n     * @param _value uint256 The amount of tokens to be granted.\n     * @param _start uint256 The beginning of the vesting period.\n     * @param _cliff uint256 Point in time of the end of the cliff period (when the first installment is made).\n     * @param _end uint256 The end of the vesting period.\n     * @param _installmentLength uint256 The length of each vesting installment (in seconds).\n     * @param _revocable bool Whether the grant is revocable or not.\n     */\n    function granting(address _to, uint256 _value, uint256 _start, uint256 _cliff, uint256 _end,\n    uint256 _installmentLength, bool _revocable)\n    external onlyOwner \n    {    \n        require(_to != address(0));\n        \n        // Don't allow holder to be this contract.\n        require(_to != address(this));\n        \n        require(_value > 0);\n        \n        // Require that every holder can be granted tokens only once.\n        require(grants[_to].value == 0);\n        \n        // Require for time ranges to be consistent and valid.\n        require(_start <= _cliff && _cliff <= _end);\n        \n        // Require installment length to be valid and no longer than (end - start).\n        require(_installmentLength > 0 && _installmentLength <= _end.sub(_start));\n        \n        // Grant must not exceed the total amount of tokens currently available for vesting.\n        require(totalVesting.add(_value) <= token.balanceOf(address(this)));\n        \n        // Assign a new grant.\n        grants[_to] = Grant({\n            value: _value,\n            start: _start,\n            cliff: _cliff,\n            end: _end,\n            installmentLength: _installmentLength,\n            transferred: 0,\n            revocable: _revocable\n        });\n        \n        // Since tokens have been granted, increase the total amount available for vesting.\n        totalVesting = totalVesting.add(_value);\n        \n        emit NewGrant(msg.sender, _to, _value);\n    }\n    \n    /**\n     * @dev Calculate the total amount of vested tokens of a holder at a given time.\n     * @param _holder address The address of the holder.\n     * @param _time uint256 The specific time to calculate against.\n     * @return a uint256 Representing a holder's total amount of vested tokens.\n     */\n    function vestedTokens(address _holder, uint256 _time) external constant returns (uint256) {\n        Grant memory grant_ = grants[_holder];\n        if (grant_.value == 0) {\n            return 0;\n        }\n        return calculateVestedTokens(grant_, _time);\n    }\n\n    /** \n     * @dev Revoke the grant of tokens of a specifed address.\n     * @param _holder The address which will have its tokens revoked.\n     */\n    function revoke(address _holder) public onlyOwner {\n        Grant memory grant_ = grants[_holder];\n\n        // Grant must be revocable.\n        require(grant_.revocable);\n\n        // Calculate amount of remaining tokens that are still available (i.e. not yet vested) to be returned to owner.\n        uint256 vested = calculateVestedTokens(grant_, block.timestamp);\n        \n        uint256 notTransferredInstallment = vested.sub(grant_.transferred);\n        \n        uint256 refund = grant_.value.sub(vested);\n        \n        //Update of transferred not necessary due to deletion of the grant in the following step.\n        \n        // Remove grant information.\n        delete grants[_holder];\n        \n        // Update total vesting amount and transfer previously calculated tokens to owner.\n        totalVesting = totalVesting.sub(refund);\n        \n        // Transfer vested amount that was not yet transferred to _holder.\n        token.safeTransfer(_holder, notTransferredInstallment);\n        \n        emit TokensUnlocked(_holder, notTransferredInstallment);\n        \n        token.safeTransfer(msg.sender, refund);\n        \n        emit TokensUnlocked(msg.sender, refund);\n        \n        emit GrantRevoked(_holder, refund);\n    }\n\n    /**\n     * @dev Calculate amount of vested tokens at a specifc time.\n     * @param _grant Grant The vesting grant.\n     * @param _time uint256 The time to be checked\n     * @return a uint256 Representing the amount of vested tokens of a specific grant.\n     */\n    function calculateVestedTokens(Grant _grant, uint256 _time) private pure returns (uint256) {\n        // If we're before the cliff, then nothing is vested.\n        if (_time < _grant.cliff) {\n            return 0;\n        }\n       \n        // If we're after the end of the vesting period - everything is vested;\n        if (_time >= _grant.end) {\n            return _grant.value;\n        }\n       \n        // Calculate amount of installments past until now.\n        // NOTE result gets floored because of integer division.\n        uint256 installmentsPast = _time.sub(_grant.start).div(_grant.installmentLength);\n       \n        // Calculate amount of days in entire vesting period.\n        uint256 vestingDays = _grant.end.sub(_grant.start);\n       \n        // Calculate and return installments that have passed according to vesting days that have passed.\n        return _grant.value.mul(installmentsPast.mul(_grant.installmentLength)).div(vestingDays);\n    }\n}",
  "sourcePath": "/Users/miguel/Projects/savedroid/test/contracts/SvdVesting.sol",
  "compiler": {
    "name": "solc",
    "version": "0.4.23+commit.124ca40d.Emscripten.clang"
  },
  "schemaVersion": "2.0.0",
  "updatedAt": "2018-05-10T19:46:50.601Z"
}